{
  "_format": "hh-sol-artifact-1",
  "contractName": "Bingo",
  "sourceName": "contracts/bingo.sol",
  "abi": [
    {
      "inputs": [
        {
          "internalType": "bytes32",
          "name": "gasLane",
          "type": "bytes32"
        },
        {
          "internalType": "address",
          "name": "vrfCoordinatorV2",
          "type": "address"
        },
        {
          "internalType": "uint256",
          "name": "entranceFee",
          "type": "uint256"
        },
        {
          "internalType": "uint64",
          "name": "subscriptionId",
          "type": "uint64"
        },
        {
          "internalType": "uint32",
          "name": "callbackGasLimit",
          "type": "uint32"
        },
        {
          "internalType": "uint256",
          "name": "interval",
          "type": "uint256"
        }
      ],
      "stateMutability": "nonpayable",
      "type": "constructor"
    },
    {
      "inputs": [],
      "name": "Bingo__BingoStateIsNotOpen",
      "type": "error"
    },
    {
      "inputs": [],
      "name": "Bingo__NotEnoughtETH",
      "type": "error"
    },
    {
      "inputs": [
        {
          "internalType": "uint256",
          "name": "accountBalance",
          "type": "uint256"
        },
        {
          "internalType": "uint256",
          "name": "noOfPlayers",
          "type": "uint256"
        },
        {
          "internalType": "uint256",
          "name": "bingoState",
          "type": "uint256"
        }
      ],
      "name": "Bingo__UpKeepNotNeeded",
      "type": "error"
    },
    {
      "inputs": [],
      "name": "Bingo__WinnerTransactionFailed",
      "type": "error"
    },
    {
      "inputs": [
        {
          "internalType": "address",
          "name": "have",
          "type": "address"
        },
        {
          "internalType": "address",
          "name": "want",
          "type": "address"
        }
      ],
      "name": "OnlyCoordinatorCanFulfill",
      "type": "error"
    },
    {
      "anonymous": false,
      "inputs": [
        {
          "indexed": true,
          "internalType": "address",
          "name": "player",
          "type": "address"
        }
      ],
      "name": "BingoEnter",
      "type": "event"
    },
    {
      "anonymous": false,
      "inputs": [
        {
          "indexed": true,
          "internalType": "uint256",
          "name": "requestId",
          "type": "uint256"
        }
      ],
      "name": "RequestBingoWinner",
      "type": "event"
    },
    {
      "anonymous": false,
      "inputs": [
        {
          "indexed": true,
          "internalType": "address",
          "name": "winner",
          "type": "address"
        }
      ],
      "name": "WinnerBingo",
      "type": "event"
    },
    {
      "inputs": [
        {
          "internalType": "bytes",
          "name": "",
          "type": "bytes"
        }
      ],
      "name": "checkUpkeep",
      "outputs": [
        {
          "internalType": "bool",
          "name": "upkeepNeeded",
          "type": "bool"
        },
        {
          "internalType": "bytes",
          "name": "",
          "type": "bytes"
        }
      ],
      "stateMutability": "view",
      "type": "function"
    },
    {
      "inputs": [],
      "name": "enterBingo",
      "outputs": [],
      "stateMutability": "payable",
      "type": "function"
    },
    {
      "inputs": [],
      "name": "getBingoState",
      "outputs": [
        {
          "internalType": "enum Bingo.BingoState",
          "name": "",
          "type": "uint8"
        }
      ],
      "stateMutability": "view",
      "type": "function"
    },
    {
      "inputs": [],
      "name": "getBingoWinner",
      "outputs": [
        {
          "internalType": "address",
          "name": "",
          "type": "address"
        }
      ],
      "stateMutability": "view",
      "type": "function"
    },
    {
      "inputs": [],
      "name": "getEntranceFee",
      "outputs": [
        {
          "internalType": "uint256",
          "name": "",
          "type": "uint256"
        }
      ],
      "stateMutability": "view",
      "type": "function"
    },
    {
      "inputs": [],
      "name": "getInterval",
      "outputs": [
        {
          "internalType": "uint256",
          "name": "",
          "type": "uint256"
        }
      ],
      "stateMutability": "view",
      "type": "function"
    },
    {
      "inputs": [],
      "name": "getLastTimeStamp",
      "outputs": [
        {
          "internalType": "uint256",
          "name": "",
          "type": "uint256"
        }
      ],
      "stateMutability": "view",
      "type": "function"
    },
    {
      "inputs": [],
      "name": "getNumWords",
      "outputs": [
        {
          "internalType": "uint256",
          "name": "",
          "type": "uint256"
        }
      ],
      "stateMutability": "pure",
      "type": "function"
    },
    {
      "inputs": [],
      "name": "getNumberOfPlayers",
      "outputs": [
        {
          "internalType": "uint256",
          "name": "",
          "type": "uint256"
        }
      ],
      "stateMutability": "view",
      "type": "function"
    },
    {
      "inputs": [
        {
          "internalType": "uint256",
          "name": "index",
          "type": "uint256"
        }
      ],
      "name": "getPlayers",
      "outputs": [
        {
          "internalType": "address",
          "name": "",
          "type": "address"
        }
      ],
      "stateMutability": "view",
      "type": "function"
    },
    {
      "inputs": [],
      "name": "getRequestConfirmations",
      "outputs": [
        {
          "internalType": "uint256",
          "name": "",
          "type": "uint256"
        }
      ],
      "stateMutability": "pure",
      "type": "function"
    },
    {
      "inputs": [
        {
          "internalType": "bytes",
          "name": "",
          "type": "bytes"
        }
      ],
      "name": "performUpkeep",
      "outputs": [],
      "stateMutability": "nonpayable",
      "type": "function"
    },
    {
      "inputs": [
        {
          "internalType": "uint256",
          "name": "requestId",
          "type": "uint256"
        },
        {
          "internalType": "uint256[]",
          "name": "randomWords",
          "type": "uint256[]"
        }
      ],
      "name": "rawFulfillRandomWords",
      "outputs": [],
      "stateMutability": "nonpayable",
      "type": "function"
    }
  ],
  "bytecode": "0x6101606040523480156200001257600080fd5b5060405162001838380380620018388339818101604052810190620000389190620001ad565b848073ffffffffffffffffffffffffffffffffffffffff1660808173ffffffffffffffffffffffffffffffffffffffff1660601b81525050508473ffffffffffffffffffffffffffffffffffffffff1660c08173ffffffffffffffffffffffffffffffffffffffff1660601b815250508360a081815250508560e081815250508267ffffffffffffffff166101008167ffffffffffffffff1660c01b815250508163ffffffff166101208163ffffffff1660e01b815250506000600160146101000a81548160ff02191690836001811115620001195762000118620002b5565b5b0217905550426002819055508061014081815250505050505050506200036b565b6000815190506200014b81620002e9565b92915050565b600081519050620001628162000303565b92915050565b60008151905062000179816200031d565b92915050565b600081519050620001908162000337565b92915050565b600081519050620001a78162000351565b92915050565b60008060008060008060c08789031215620001cd57620001cc620002e4565b5b6000620001dd89828a0162000151565b9650506020620001f089828a016200013a565b95505060406200020389828a0162000168565b94505060606200021689828a0162000196565b93505060806200022989828a016200017f565b92505060a06200023c89828a0162000168565b9150509295509295509295565b6000620002568262000267565b9050919050565b6000819050919050565b600073ffffffffffffffffffffffffffffffffffffffff82169050919050565b6000819050919050565b600063ffffffff82169050919050565b600067ffffffffffffffff82169050919050565b7f4e487b7100000000000000000000000000000000000000000000000000000000600052602160045260246000fd5b600080fd5b620002f48162000249565b81146200030057600080fd5b50565b6200030e816200025d565b81146200031a57600080fd5b50565b620003288162000287565b81146200033457600080fd5b50565b620003428162000291565b81146200034e57600080fd5b50565b6200035c81620002a1565b81146200036857600080fd5b50565b60805160601c60a05160c05160601c60e0516101005160c01c6101205160e01c61014051611451620003e7600039600081816107f1015261085f01526000610683015260006106600152600061063f015260006106030152600081816102f8015261046801526000818161048e01526104e201526114516000f3fe6080604052600436106100c25760003560e01c80635f1b0fd81161007f578063a3ff82ec11610059578063a3ff82ec1461024a578063a4c6e86c14610275578063c1c244e8146102a0578063fd6673f5146102cb576100c2565b80635f1b0fd8146101b65780636e04ff0d146101e157806391ad27b41461021f576100c2565b806306729623146100c757806309bc33a7146100d15780631fe543e3146100fc5780634585e33b14610125578063460e20491461014e57806353a2c19a1461018b575b600080fd5b6100cf6102f6565b005b3480156100dd57600080fd5b506100e6610464565b6040516100f39190611057565b60405180910390f35b34801561010857600080fd5b50610123600480360381019061011e9190610e30565b61048c565b005b34801561013157600080fd5b5061014c60048036038101906101479190610d40565b61054c565b005b34801561015a57600080fd5b5061017560048036038101906101709190610dd6565b61074b565b6040516101829190610f75565b60405180910390f35b34801561019757600080fd5b506101a0610792565b6040516101ad9190611057565b60405180910390f35b3480156101c257600080fd5b506101cb6107a1565b6040516101d89190611057565b60405180910390f35b3480156101ed57600080fd5b5061020860048036038101906102039190610d8d565b6107ae565b604051610216929190610fb9565b60405180910390f35b34801561022b57600080fd5b5061023461085b565b6040516102419190611057565b60405180910390f35b34801561025657600080fd5b5061025f610883565b60405161026c9190610f75565b60405180910390f35b34801561028157600080fd5b5061028a6108ad565b604051610297919061103c565b60405180910390f35b3480156102ac57600080fd5b506102b56108c4565b6040516102c29190611057565b60405180910390f35b3480156102d757600080fd5b506102e06108ce565b6040516102ed9190611057565b60405180910390f35b7f0000000000000000000000000000000000000000000000000000000000000000341161034f576040517f12ce9c4300000000000000000000000000000000000000000000000000000000815260040160405180910390fd5b6000600181111561036357610362611331565b5b600160149054906101000a900460ff16600181111561038557610384611331565b5b146103bc576040517f9a0e00f200000000000000000000000000000000000000000000000000000000815260040160405180910390fd5b6000339080600181540180825580915050600190039060005260206000200160009091909190916101000a81548173ffffffffffffffffffffffffffffffffffffffff021916908373ffffffffffffffffffffffffffffffffffffffff1602179055503373ffffffffffffffffffffffffffffffffffffffff167f47b4da6fd15e342318d7470d7205b397da667aee9fde43578db7674ef762314660405160405180910390a2565b60007f0000000000000000000000000000000000000000000000000000000000000000905090565b7f000000000000000000000000000000000000000000000000000000000000000073ffffffffffffffffffffffffffffffffffffffff163373ffffffffffffffffffffffffffffffffffffffff161461053e57337f00000000000000000000000000000000000000000000000000000000000000006040517f1cf993f4000000000000000000000000000000000000000000000000000000008152600401610535929190610f90565b60405180910390fd5b61054882826108da565b5050565b6000610566604051806020016040528060008152506107ae565b509050806105d55747600080549050600160149054906101000a900460ff16600181111561059757610596611331565b5b6040517fa02703a90000000000000000000000000000000000000000000000000000000081526004016105cc93929190611072565b60405180910390fd5b60018060146101000a81548160ff021916908360018111156105fa576105f9611331565b5b021790555060007f000000000000000000000000000000000000000000000000000000000000000073ffffffffffffffffffffffffffffffffffffffff16635d3b1d307f00000000000000000000000000000000000000000000000000000000000000007f000000000000000000000000000000000000000000000000000000000000000060027f000000000000000000000000000000000000000000000000000000000000000060016040518663ffffffff1660e01b81526004016106c4959493929190610fe9565b602060405180830381600087803b1580156106de57600080fd5b505af11580156106f2573d6000803e3d6000fd5b505050506040513d601f19601f820116820180604052508101906107169190610e03565b9050807f950060cf2c931a7438ae63938876c5df3e06c69d969b477e097b8a62fd28773960405160405180910390a250505050565b60008082815481106107605761075f611360565b5b9060005260206000200160009054906101000a900473ffffffffffffffffffffffffffffffffffffffff169050919050565b6000600163ffffffff16905090565b6000600261ffff16905090565b600060606000600160149054906101000a900460ff1660018111156107d6576107d5611331565b5b600060018111156107ea576107e9611331565b5b14905060007f00000000000000000000000000000000000000000000000000000000000000006002544261081e9190611152565b1190506000806000805490501190506000804711905083801561083e5750825b80156108475750815b80156108505750805b955050505050915091565b60007f0000000000000000000000000000000000000000000000000000000000000000905090565b6000600160009054906101000a900473ffffffffffffffffffffffffffffffffffffffff16905090565b6000600160149054906101000a900460ff16905090565b6000600254905090565b60008080549050905090565b60008080549050826000815181106108f5576108f4611360565b5b602002602001015161090791906112a2565b9050600080828154811061091e5761091d611360565b5b9060005260206000200160009054906101000a900473ffffffffffffffffffffffffffffffffffffffff169050600067ffffffffffffffff8111156109665761096561138f565b5b6040519080825280602002602001820160405280156109945781602001602082028036833780820191505090505b50600090805190602001906109aa929190610b0b565b504260028190555080600160006101000a81548173ffffffffffffffffffffffffffffffffffffffff021916908373ffffffffffffffffffffffffffffffffffffffff1602179055506000600160146101000a81548160ff02191690836001811115610a1957610a18611331565b5b021790555060008173ffffffffffffffffffffffffffffffffffffffff1647604051610a4490610f60565b60006040518083038185875af1925050503d8060008114610a81576040519150601f19603f3d011682016040523d82523d6000602084013e610a86565b606091505b5050905080610ac1576040517f5a2b4b7400000000000000000000000000000000000000000000000000000000815260040160405180910390fd5b8173ffffffffffffffffffffffffffffffffffffffff167f4f1efc2a5a9bb130dd534c1749e9fa2c41dc9fb14babe188f386c433c9d717bd60405160405180910390a25050505050565b828054828255906000526020600020908101928215610b84579160200282015b82811115610b835782518260006101000a81548173ffffffffffffffffffffffffffffffffffffffff021916908373ffffffffffffffffffffffffffffffffffffffff16021790555091602001919060010190610b2b565b5b509050610b919190610b95565b5090565b5b80821115610bae576000816000905550600101610b96565b5090565b6000610bc5610bc0846110ce565b6110a9565b90508083825260208201905082856020860282011115610be857610be76113c8565b5b60005b85811015610c185781610bfe8882610d16565b845260208401935060208301925050600181019050610beb565b5050509392505050565b6000610c35610c30846110fa565b6110a9565b905082815260208101848484011115610c5157610c506113cd565b5b610c5c84828561122f565b509392505050565b600082601f830112610c7957610c786113c3565b5b8135610c89848260208601610bb2565b91505092915050565b60008083601f840112610ca857610ca76113c3565b5b8235905067ffffffffffffffff811115610cc557610cc46113be565b5b602083019150836001820283011115610ce157610ce06113c8565b5b9250929050565b600082601f830112610cfd57610cfc6113c3565b5b8135610d0d848260208601610c22565b91505092915050565b600081359050610d2581611404565b92915050565b600081519050610d3a81611404565b92915050565b60008060208385031215610d5757610d566113d7565b5b600083013567ffffffffffffffff811115610d7557610d746113d2565b5b610d8185828601610c92565b92509250509250929050565b600060208284031215610da357610da26113d7565b5b600082013567ffffffffffffffff811115610dc157610dc06113d2565b5b610dcd84828501610ce8565b91505092915050565b600060208284031215610dec57610deb6113d7565b5b6000610dfa84828501610d16565b91505092915050565b600060208284031215610e1957610e186113d7565b5b6000610e2784828501610d2b565b91505092915050565b60008060408385031215610e4757610e466113d7565b5b6000610e5585828601610d16565b925050602083013567ffffffffffffffff811115610e7657610e756113d2565b5b610e8285828601610c64565b9150509250929050565b610e9581611186565b82525050565b610ea481611198565b82525050565b610eb3816111a4565b82525050565b6000610ec48261112b565b610ece8185611136565b9350610ede81856020860161123e565b610ee7816113dc565b840191505092915050565b610efb8161121d565b82525050565b6000610f0e600083611147565b9150610f19826113ed565b600082019050919050565b610f2d816111c1565b82525050565b610f3c816111ef565b82525050565b610f4b816111f9565b82525050565b610f5a81611209565b82525050565b6000610f6b82610f01565b9150819050919050565b6000602082019050610f8a6000830184610e8c565b92915050565b6000604082019050610fa56000830185610e8c565b610fb26020830184610e8c565b9392505050565b6000604082019050610fce6000830185610e9b565b8181036020830152610fe08184610eb9565b90509392505050565b600060a082019050610ffe6000830188610eaa565b61100b6020830187610f51565b6110186040830186610f24565b6110256060830185610f42565b6110326080830184610f42565b9695505050505050565b60006020820190506110516000830184610ef2565b92915050565b600060208201905061106c6000830184610f33565b92915050565b60006060820190506110876000830186610f33565b6110946020830185610f33565b6110a16040830184610f33565b949350505050565b60006110b36110c4565b90506110bf8282611271565b919050565b6000604051905090565b600067ffffffffffffffff8211156110e9576110e861138f565b5b602082029050602081019050919050565b600067ffffffffffffffff8211156111155761111461138f565b5b61111e826113dc565b9050602081019050919050565b600081519050919050565b600082825260208201905092915050565b600081905092915050565b600061115d826111ef565b9150611168836111ef565b92508282101561117b5761117a6112d3565b5b828203905092915050565b6000611191826111cf565b9050919050565b60008115159050919050565b6000819050919050565b60008190506111bc826113f0565b919050565b600061ffff82169050919050565b600073ffffffffffffffffffffffffffffffffffffffff82169050919050565b6000819050919050565b600063ffffffff82169050919050565b600067ffffffffffffffff82169050919050565b6000611228826111ae565b9050919050565b82818337600083830152505050565b60005b8381101561125c578082015181840152602081019050611241565b8381111561126b576000848401525b50505050565b61127a826113dc565b810181811067ffffffffffffffff821117156112995761129861138f565b5b80604052505050565b60006112ad826111ef565b91506112b8836111ef565b9250826112c8576112c7611302565b5b828206905092915050565b7f4e487b7100000000000000000000000000000000000000000000000000000000600052601160045260246000fd5b7f4e487b7100000000000000000000000000000000000000000000000000000000600052601260045260246000fd5b7f4e487b7100000000000000000000000000000000000000000000000000000000600052602160045260246000fd5b7f4e487b7100000000000000000000000000000000000000000000000000000000600052603260045260246000fd5b7f4e487b7100000000000000000000000000000000000000000000000000000000600052604160045260246000fd5b600080fd5b600080fd5b600080fd5b600080fd5b600080fd5b600080fd5b6000601f19601f8301169050919050565b50565b6002811061140157611400611331565b5b50565b61140d816111ef565b811461141857600080fd5b5056fea26469706673582212209295d642f26f4d61782bd387f728768f0878ed6f00a280028be24138d6e2927164736f6c63430008070033",
  "linkReferences": {},
  "deployedLinkReferences": {}
}